{
  "contractName": "Registry",
  "abi": [
    {
      "inputs": [],
      "stateMutability": "nonpayable",
      "type": "constructor"
    },
    {
      "inputs": [
        {
          "internalType": "address",
          "name": "",
          "type": "address"
        }
      ],
      "name": "admins",
      "outputs": [
        {
          "internalType": "address",
          "name": "adminAddress",
          "type": "address"
        },
        {
          "internalType": "string",
          "name": "city",
          "type": "string"
        },
        {
          "internalType": "string",
          "name": "district",
          "type": "string"
        },
        {
          "internalType": "string",
          "name": "state",
          "type": "string"
        }
      ],
      "stateMutability": "view",
      "type": "function"
    },
    {
      "inputs": [
        {
          "internalType": "string",
          "name": "",
          "type": "string"
        },
        {
          "internalType": "string",
          "name": "",
          "type": "string"
        },
        {
          "internalType": "string",
          "name": "",
          "type": "string"
        },
        {
          "internalType": "uint256",
          "name": "",
          "type": "uint256"
        }
      ],
      "name": "landDetalsMap",
      "outputs": [
        {
          "internalType": "address",
          "name": "owner",
          "type": "address"
        },
        {
          "internalType": "address",
          "name": "admin",
          "type": "address"
        },
        {
          "internalType": "uint256",
          "name": "propertyId",
          "type": "uint256"
        },
        {
          "internalType": "uint256",
          "name": "surveyNumber",
          "type": "uint256"
        },
        {
          "internalType": "uint256",
          "name": "index",
          "type": "uint256"
        },
        {
          "internalType": "bool",
          "name": "registered",
          "type": "bool"
        },
        {
          "internalType": "uint256",
          "name": "marketValue",
          "type": "uint256"
        },
        {
          "internalType": "bool",
          "name": "markAvailable",
          "type": "bool"
        },
        {
          "internalType": "uint256",
          "name": "noOfRequests",
          "type": "uint256"
        },
        {
          "internalType": "uint256",
          "name": "sqft",
          "type": "uint256"
        }
      ],
      "stateMutability": "view",
      "type": "function"
    },
    {
      "inputs": [
        {
          "internalType": "address",
          "name": "",
          "type": "address"
        },
        {
          "internalType": "uint256",
          "name": "",
          "type": "uint256"
        }
      ],
      "name": "ownerMapsProperty",
      "outputs": [
        {
          "internalType": "uint256",
          "name": "surveyNumber",
          "type": "uint256"
        },
        {
          "internalType": "string",
          "name": "state",
          "type": "string"
        },
        {
          "internalType": "string",
          "name": "district",
          "type": "string"
        },
        {
          "internalType": "string",
          "name": "city",
          "type": "string"
        }
      ],
      "stateMutability": "view",
      "type": "function"
    },
    {
      "inputs": [
        {
          "internalType": "address",
          "name": "",
          "type": "address"
        },
        {
          "internalType": "uint256",
          "name": "",
          "type": "uint256"
        }
      ],
      "name": "requestedLands",
      "outputs": [
        {
          "internalType": "uint256",
          "name": "surveyNumber",
          "type": "uint256"
        },
        {
          "internalType": "string",
          "name": "state",
          "type": "string"
        },
        {
          "internalType": "string",
          "name": "district",
          "type": "string"
        },
        {
          "internalType": "string",
          "name": "city",
          "type": "string"
        }
      ],
      "stateMutability": "view",
      "type": "function"
    },
    {
      "inputs": [],
      "name": "superAdmin",
      "outputs": [
        {
          "internalType": "address",
          "name": "",
          "type": "address"
        }
      ],
      "stateMutability": "view",
      "type": "function"
    },
    {
      "inputs": [],
      "name": "totalAdmins",
      "outputs": [
        {
          "internalType": "uint256",
          "name": "",
          "type": "uint256"
        }
      ],
      "stateMutability": "view",
      "type": "function"
    },
    {
      "inputs": [
        {
          "internalType": "address",
          "name": "",
          "type": "address"
        }
      ],
      "name": "userProfile",
      "outputs": [
        {
          "internalType": "address",
          "name": "userAddr",
          "type": "address"
        },
        {
          "internalType": "string",
          "name": "fullName",
          "type": "string"
        },
        {
          "internalType": "string",
          "name": "gender",
          "type": "string"
        },
        {
          "internalType": "string",
          "name": "email",
          "type": "string"
        },
        {
          "internalType": "uint256",
          "name": "contact",
          "type": "uint256"
        },
        {
          "internalType": "string",
          "name": "residentialAddr",
          "type": "string"
        },
        {
          "internalType": "uint256",
          "name": "totalIndices",
          "type": "uint256"
        },
        {
          "internalType": "uint256",
          "name": "requestIndices",
          "type": "uint256"
        }
      ],
      "stateMutability": "view",
      "type": "function"
    },
    {
      "inputs": [
        {
          "internalType": "address",
          "name": "_adminAddr",
          "type": "address"
        },
        {
          "internalType": "string",
          "name": "_state",
          "type": "string"
        },
        {
          "internalType": "string",
          "name": "_district",
          "type": "string"
        },
        {
          "internalType": "string",
          "name": "_city",
          "type": "string"
        }
      ],
      "name": "addAdmin",
      "outputs": [],
      "stateMutability": "nonpayable",
      "type": "function"
    },
    {
      "inputs": [],
      "name": "isAdmin",
      "outputs": [
        {
          "internalType": "bool",
          "name": "",
          "type": "bool"
        }
      ],
      "stateMutability": "view",
      "type": "function"
    },
    {
      "inputs": [
        {
          "internalType": "string",
          "name": "_state",
          "type": "string"
        },
        {
          "internalType": "string",
          "name": "_district",
          "type": "string"
        },
        {
          "internalType": "string",
          "name": "_city",
          "type": "string"
        },
        {
          "internalType": "uint256",
          "name": "_propertyId",
          "type": "uint256"
        },
        {
          "internalType": "uint256",
          "name": "_surveyNo",
          "type": "uint256"
        },
        {
          "internalType": "address",
          "name": "_owner",
          "type": "address"
        },
        {
          "internalType": "uint256",
          "name": "_marketValue",
          "type": "uint256"
        },
        {
          "internalType": "uint256",
          "name": "_sqft",
          "type": "uint256"
        }
      ],
      "name": "registerLand",
      "outputs": [],
      "stateMutability": "nonpayable",
      "type": "function"
    },
    {
      "inputs": [
        {
          "internalType": "string",
          "name": "_fullName",
          "type": "string"
        },
        {
          "internalType": "string",
          "name": "_gender",
          "type": "string"
        },
        {
          "internalType": "string",
          "name": "_email",
          "type": "string"
        },
        {
          "internalType": "uint256",
          "name": "_contact",
          "type": "uint256"
        },
        {
          "internalType": "string",
          "name": "_residentialAddr",
          "type": "string"
        }
      ],
      "name": "setUserProfile",
      "outputs": [],
      "stateMutability": "nonpayable",
      "type": "function"
    },
    {
      "inputs": [
        {
          "internalType": "uint256",
          "name": "indexNo",
          "type": "uint256"
        }
      ],
      "name": "markMyPropertyAvailable",
      "outputs": [],
      "stateMutability": "nonpayable",
      "type": "function"
    },
    {
      "inputs": [
        {
          "internalType": "string",
          "name": "_state",
          "type": "string"
        },
        {
          "internalType": "string",
          "name": "_district",
          "type": "string"
        },
        {
          "internalType": "string",
          "name": "_city",
          "type": "string"
        },
        {
          "internalType": "uint256",
          "name": "_surveyNo",
          "type": "uint256"
        }
      ],
      "name": "RequestForBuy",
      "outputs": [],
      "stateMutability": "payable",
      "type": "function"
    },
    {
      "inputs": [
        {
          "internalType": "uint256",
          "name": "_index",
          "type": "uint256"
        },
        {
          "internalType": "uint256",
          "name": "_reqNo",
          "type": "uint256"
        }
      ],
      "name": "AcceptRequest",
      "outputs": [],
      "stateMutability": "payable",
      "type": "function"
    },
    {
      "inputs": [
        {
          "internalType": "string",
          "name": "_state",
          "type": "string"
        },
        {
          "internalType": "string",
          "name": "_district",
          "type": "string"
        },
        {
          "internalType": "string",
          "name": "_city",
          "type": "string"
        },
        {
          "internalType": "uint256",
          "name": "_surveyNo",
          "type": "uint256"
        }
      ],
      "name": "getLandDetails",
      "outputs": [
        {
          "internalType": "address",
          "name": "",
          "type": "address"
        },
        {
          "internalType": "uint256",
          "name": "",
          "type": "uint256"
        },
        {
          "internalType": "uint256",
          "name": "",
          "type": "uint256"
        },
        {
          "internalType": "uint256",
          "name": "",
          "type": "uint256"
        },
        {
          "internalType": "uint256",
          "name": "",
          "type": "uint256"
        }
      ],
      "stateMutability": "view",
      "type": "function"
    },
    {
      "inputs": [
        {
          "internalType": "string",
          "name": "_state",
          "type": "string"
        },
        {
          "internalType": "string",
          "name": "_district",
          "type": "string"
        },
        {
          "internalType": "string",
          "name": "_city",
          "type": "string"
        },
        {
          "internalType": "uint256",
          "name": "_surveyNo",
          "type": "uint256"
        }
      ],
      "name": "getRequestCnt_propId",
      "outputs": [
        {
          "internalType": "uint256",
          "name": "",
          "type": "uint256"
        },
        {
          "internalType": "uint256",
          "name": "",
          "type": "uint256"
        }
      ],
      "stateMutability": "view",
      "type": "function"
    },
    {
      "inputs": [
        {
          "internalType": "string",
          "name": "_state",
          "type": "string"
        },
        {
          "internalType": "string",
          "name": "_district",
          "type": "string"
        },
        {
          "internalType": "string",
          "name": "_city",
          "type": "string"
        },
        {
          "internalType": "uint256",
          "name": "_surveyNo",
          "type": "uint256"
        },
        {
          "internalType": "uint256",
          "name": "_reqIndex",
          "type": "uint256"
        }
      ],
      "name": "getRequesterDetail",
      "outputs": [
        {
          "internalType": "address",
          "name": "",
          "type": "address"
        }
      ],
      "stateMutability": "view",
      "type": "function"
    },
    {
      "inputs": [
        {
          "internalType": "string",
          "name": "_state",
          "type": "string"
        },
        {
          "internalType": "string",
          "name": "_district",
          "type": "string"
        },
        {
          "internalType": "string",
          "name": "_city",
          "type": "string"
        },
        {
          "internalType": "uint256",
          "name": "_surveyNo",
          "type": "uint256"
        }
      ],
      "name": "isAvailable",
      "outputs": [
        {
          "internalType": "bool",
          "name": "",
          "type": "bool"
        }
      ],
      "stateMutability": "view",
      "type": "function"
    },
    {
      "inputs": [
        {
          "internalType": "uint256",
          "name": "indx",
          "type": "uint256"
        }
      ],
      "name": "getOwnerOwns",
      "outputs": [
        {
          "internalType": "string",
          "name": "",
          "type": "string"
        },
        {
          "internalType": "string",
          "name": "",
          "type": "string"
        },
        {
          "internalType": "string",
          "name": "",
          "type": "string"
        },
        {
          "internalType": "uint256",
          "name": "",
          "type": "uint256"
        }
      ],
      "stateMutability": "view",
      "type": "function"
    },
    {
      "inputs": [
        {
          "internalType": "uint256",
          "name": "indx",
          "type": "uint256"
        }
      ],
      "name": "getRequestedLands",
      "outputs": [
        {
          "internalType": "string",
          "name": "",
          "type": "string"
        },
        {
          "internalType": "string",
          "name": "",
          "type": "string"
        },
        {
          "internalType": "string",
          "name": "",
          "type": "string"
        },
        {
          "internalType": "uint256",
          "name": "",
          "type": "uint256"
        }
      ],
      "stateMutability": "view",
      "type": "function"
    },
    {
      "inputs": [],
      "name": "getUserProfile",
      "outputs": [
        {
          "internalType": "string",
          "name": "",
          "type": "string"
        },
        {
          "internalType": "string",
          "name": "",
          "type": "string"
        },
        {
          "internalType": "string",
          "name": "",
          "type": "string"
        },
        {
          "internalType": "uint256",
          "name": "",
          "type": "uint256"
        },
        {
          "internalType": "string",
          "name": "",
          "type": "string"
        }
      ],
      "stateMutability": "view",
      "type": "function"
    },
    {
      "inputs": [],
      "name": "getIndices",
      "outputs": [
        {
          "internalType": "uint256",
          "name": "",
          "type": "uint256"
        },
        {
          "internalType": "uint256",
          "name": "",
          "type": "uint256"
        }
      ],
      "stateMutability": "view",
      "type": "function"
    },
    {
      "inputs": [
        {
          "internalType": "string",
          "name": "_state",
          "type": "string"
        },
        {
          "internalType": "string",
          "name": "_district",
          "type": "string"
        },
        {
          "internalType": "string",
          "name": "_city",
          "type": "string"
        },
        {
          "internalType": "uint256",
          "name": "_surveyNo",
          "type": "uint256"
        }
      ],
      "name": "didIRequested",
      "outputs": [
        {
          "internalType": "bool",
          "name": "",
          "type": "bool"
        }
      ],
      "stateMutability": "view",
      "type": "function"
    }
  ],
  "bytecode": "0x608060405234801561001057600080fd5b50336000806101000a81548173ffffffffffffffffffffffffffffffffffffffff021916908373ffffffffffffffffffffffffffffffffffffffff16021790555061471f806100606000396000f3fe6080604052600436106101405760003560e01c80636d1b9a8e116100b6578063d06efd671161006f578063d06efd67146104ba578063d1dbeff2146104f8578063d41cc5c814610538578063e331ad7c14610554578063eaec23fa14610595578063eb68048b146105d257610140565b80636d1b9a8e1461039e5780636f61c744146103de5780638a80e4e41461040d578063992369da14610429578063b6db75a014610466578063bfde241c1461049157610140565b80632a52ee86116101085780632a52ee86146102635780632ca305f31461028c5780633bbd43b3146102cc578063429b62e51461030957806344e05734146103495780635863056d1461037257610140565b806303825d6c146101455780630e2279af1461016e5780631555ff1e146101ae5780631c8e8962146101f457806329575f6a14610238575b600080fd5b34801561015157600080fd5b5061016c60048036038101906101679190613aa2565b6105fd565b005b34801561017a57600080fd5b5061019560048036038101906101909190613b93565b6106ed565b6040516101a59493929190613c6a565b60405180910390f35b3480156101ba57600080fd5b506101d560048036038101906101d09190613cc4565b6108c2565b6040516101eb9a99989796959493929190613da9565b60405180910390f35b34801561020057600080fd5b5061021b60048036038101906102169190613e45565b6109d9565b60405161022f989796959493929190613e72565b60405180910390f35b34801561024457600080fd5b5061024d610c61565b60405161025a9190613f0c565b60405180910390f35b34801561026f57600080fd5b5061028a60048036038101906102859190613f27565b610c85565b005b34801561029857600080fd5b506102b360048036038101906102ae9190614031565b61103d565b6040516102c3949392919061405e565b60405180910390f35b3480156102d857600080fd5b506102f360048036038101906102ee91906140b8565b611352565b6040516103009190613f0c565b60405180910390f35b34801561031557600080fd5b50610330600480360381019061032b9190613e45565b611403565b6040516103409493929190614187565b60405180910390f35b34801561035557600080fd5b50610370600480360381019061036b9190614031565b6115eb565b005b34801561037e57600080fd5b50610387611a2b565b6040516103959291906141e1565b60405180910390f35b3480156103aa57600080fd5b506103c560048036038101906103c09190614031565b611ac8565b6040516103d5949392919061405e565b60405180910390f35b3480156103ea57600080fd5b506103f3611ddd565b60405161040495949392919061420a565b60405180910390f35b61042760048036038101906104229190613cc4565b612184565b005b34801561043557600080fd5b50610450600480360381019061044b9190613cc4565b61246b565b60405161045d9190614279565b60405180910390f35b34801561047257600080fd5b5061047b6124f4565b6040516104889190614279565b60405180910390f35b34801561049d57600080fd5b506104b860048036038101906104b39190614294565b61259d565b005b3480156104c657600080fd5b506104e160048036038101906104dc9190613cc4565b612655565b6040516104ef9291906141e1565b60405180910390f35b34801561050457600080fd5b5061051f600480360381019061051a9190613b93565b612747565b60405161052f9493929190613c6a565b60405180910390f35b610552600480360381019061054d919061437f565b61291c565b005b34801561056057600080fd5b5061057b60048036038101906105769190613cc4565b613461565b60405161058c9594939291906143bf565b60405180910390f35b3480156105a157600080fd5b506105bc60048036038101906105b79190613cc4565b6136d2565b6040516105c99190614279565b60405180910390f35b3480156105de57600080fd5b506105e7613801565b6040516105f49190614412565b60405180910390f35b6000600260008673ffffffffffffffffffffffffffffffffffffffff1673ffffffffffffffffffffffffffffffffffffffff1681526020019081526020016000209050600160008154809291906106539061445c565b9190505550848160000160006101000a81548173ffffffffffffffffffffffffffffffffffffffff021916908373ffffffffffffffffffffffffffffffffffffffff160217905550818160010190805190602001906106b3929190613807565b50828160020190805190602001906106cc929190613807565b50838160030190805190602001906106e5929190613807565b505050505050565b600460205281600052604060002060205280600052604060002060009150915050806000015490806001018054610723906144d4565b80601f016020809104026020016040519081016040528092919081815260200182805461074f906144d4565b801561079c5780601f106107715761010080835404028352916020019161079c565b820191906000526020600020905b81548152906001019060200180831161077f57829003601f168201915b5050505050908060020180546107b1906144d4565b80601f01602080910402602001604051908101604052809291908181526020018280546107dd906144d4565b801561082a5780601f106107ff5761010080835404028352916020019161082a565b820191906000526020600020905b81548152906001019060200180831161080d57829003601f168201915b50505050509080600301805461083f906144d4565b80601f016020809104026020016040519081016040528092919081815260200182805461086b906144d4565b80156108b85780601f1061088d576101008083540402835291602001916108b8565b820191906000526020600020905b81548152906001019060200180831161089b57829003601f168201915b5050505050905084565b60058480516020810182018051848252602083016020850120818352809550505050505083805160208101820180518482526020830160208501208183528095505050505050828051602081018201805184825260208301602085012081835280955050505050506020528060005260406000206000935093505050508060000160009054906101000a900473ffffffffffffffffffffffffffffffffffffffff16908060010160009054906101000a900473ffffffffffffffffffffffffffffffffffffffff16908060020154908060030154908060040154908060050160009054906101000a900460ff16908060060154908060070160009054906101000a900460ff169080600901549080600a015490508a565b60066020528060005260406000206000915090508060000160009054906101000a900473ffffffffffffffffffffffffffffffffffffffff1690806001018054610a22906144d4565b80601f0160208091040260200160405190810160405280929190818152602001828054610a4e906144d4565b8015610a9b5780601f10610a7057610100808354040283529160200191610a9b565b820191906000526020600020905b815481529060010190602001808311610a7e57829003601f168201915b505050505090806002018054610ab0906144d4565b80601f0160208091040260200160405190810160405280929190818152602001828054610adc906144d4565b8015610b295780601f10610afe57610100808354040283529160200191610b29565b820191906000526020600020905b815481529060010190602001808311610b0c57829003601f168201915b505050505090806003018054610b3e906144d4565b80601f0160208091040260200160405190810160405280929190818152602001828054610b6a906144d4565b8015610bb75780601f10610b8c57610100808354040283529160200191610bb7565b820191906000526020600020905b815481529060010190602001808311610b9a57829003601f168201915b505050505090806004015490806005018054610bd2906144d4565b80601f0160208091040260200160405190810160405280929190818152602001828054610bfe906144d4565b8015610c4b5780601f10610c2057610100808354040283529160200191610c4b565b820191906000526020600020905b815481529060010190602001808311610c2e57829003601f168201915b5050505050908060060154908060070154905088565b60008054906101000a900473ffffffffffffffffffffffffffffffffffffffff1681565b3373ffffffffffffffffffffffffffffffffffffffff16600260003373ffffffffffffffffffffffffffffffffffffffff1673ffffffffffffffffffffffffffffffffffffffff16815260200190815260200160002060000160009054906101000a900473ffffffffffffffffffffffffffffffffffffffff1673ffffffffffffffffffffffffffffffffffffffff1614610d55576040517f08c379a0000000000000000000000000000000000000000000000000000000008152600401610d4c90614552565b60405180910390fd5b6000600589604051610d6791906145ae565b908152602001604051809103902088604051610d8391906145ae565b908152602001604051809103902087604051610d9f91906145ae565b9081526020016040518091039020600086815260200190815260200160002090506000600360008673ffffffffffffffffffffffffffffffffffffffff1673ffffffffffffffffffffffffffffffffffffffff1681526020019081526020016000206000600660008873ffffffffffffffffffffffffffffffffffffffff1673ffffffffffffffffffffffffffffffffffffffff1681526020019081526020016000206006015481526020019081526020016000209050848260000160006101000a81548173ffffffffffffffffffffffffffffffffffffffff021916908373ffffffffffffffffffffffffffffffffffffffff160217905550338260010160006101000a81548173ffffffffffffffffffffffffffffffffffffffff021916908373ffffffffffffffffffffffffffffffffffffffff160217905550868260020181905550858260030181905550600660008673ffffffffffffffffffffffffffffffffffffffff1673ffffffffffffffffffffffffffffffffffffffff16815260200190815260200160002060060154826004018190555060018260050160006101000a81548160ff02191690831515021790555083826006018190555060008260070160006101000a81548160ff0219169083151502179055508282600a018190555085816000018190555089816001019080519060200190610fa6929190613807565b5088816002019080519060200190610fbf929190613807565b5087816003019080519060200190610fd8929190613807565b50600660008673ffffffffffffffffffffffffffffffffffffffff1673ffffffffffffffffffffffffffffffffffffffff168152602001908152602001600020600601600081548092919061102c9061445c565b919050555050505050505050505050565b6060806060600080600460003373ffffffffffffffffffffffffffffffffffffffff1673ffffffffffffffffffffffffffffffffffffffff16815260200190815260200160002060008781526020019081526020016000206000015490506000600460003373ffffffffffffffffffffffffffffffffffffffff1673ffffffffffffffffffffffffffffffffffffffff168152602001908152602001600020600088815260200190815260200160002060010180546110fb906144d4565b80601f0160208091040260200160405190810160405280929190818152602001828054611127906144d4565b80156111745780601f1061114957610100808354040283529160200191611174565b820191906000526020600020905b81548152906001019060200180831161115757829003601f168201915b505050505090506000600460003373ffffffffffffffffffffffffffffffffffffffff1673ffffffffffffffffffffffffffffffffffffffff168152602001908152602001600020600089815260200190815260200160002060020180546111db906144d4565b80601f0160208091040260200160405190810160405280929190818152602001828054611207906144d4565b80156112545780601f1061122957610100808354040283529160200191611254565b820191906000526020600020905b81548152906001019060200180831161123757829003601f168201915b505050505090506000600460003373ffffffffffffffffffffffffffffffffffffffff1673ffffffffffffffffffffffffffffffffffffffff16815260200190815260200160002060008a815260200190815260200160002060030180546112bb906144d4565b80601f01602080910402602001604051908101604052809291908181526020018280546112e7906144d4565b80156113345780601f1061130957610100808354040283529160200191611334565b820191906000526020600020905b81548152906001019060200180831161131757829003601f168201915b50505050509050828282869750975097509750505050509193509193565b60008060058760405161136591906145ae565b90815260200160405180910390208660405161138191906145ae565b90815260200160405180910390208560405161139d91906145ae565b90815260200160405180910390206000858152602001908152602001600020600801600084815260200190815260200160002060000160009054906101000a900473ffffffffffffffffffffffffffffffffffffffff1690508091505095945050505050565b60026020528060005260406000206000915090508060000160009054906101000a900473ffffffffffffffffffffffffffffffffffffffff169080600101805461144c906144d4565b80601f0160208091040260200160405190810160405280929190818152602001828054611478906144d4565b80156114c55780601f1061149a576101008083540402835291602001916114c5565b820191906000526020600020905b8154815290600101906020018083116114a857829003601f168201915b5050505050908060020180546114da906144d4565b80601f0160208091040260200160405190810160405280929190818152602001828054611506906144d4565b80156115535780601f1061152857610100808354040283529160200191611553565b820191906000526020600020905b81548152906001019060200180831161153657829003601f168201915b505050505090806003018054611568906144d4565b80601f0160208091040260200160405190810160405280929190818152602001828054611594906144d4565b80156115e15780601f106115b6576101008083540402835291602001916115e1565b820191906000526020600020905b8154815290600101906020018083116115c457829003601f168201915b5050505050905084565b6000600360003373ffffffffffffffffffffffffffffffffffffffff1673ffffffffffffffffffffffffffffffffffffffff1681526020019081526020016000206000838152602001908152602001600020600101805461164b906144d4565b80601f0160208091040260200160405190810160405280929190818152602001828054611677906144d4565b80156116c45780601f10611699576101008083540402835291602001916116c4565b820191906000526020600020905b8154815290600101906020018083116116a757829003601f168201915b505050505090506000600360003373ffffffffffffffffffffffffffffffffffffffff1673ffffffffffffffffffffffffffffffffffffffff1681526020019081526020016000206000848152602001908152602001600020600201805461172b906144d4565b80601f0160208091040260200160405190810160405280929190818152602001828054611757906144d4565b80156117a45780601f10611779576101008083540402835291602001916117a4565b820191906000526020600020905b81548152906001019060200180831161178757829003601f168201915b505050505090506000600360003373ffffffffffffffffffffffffffffffffffffffff1673ffffffffffffffffffffffffffffffffffffffff1681526020019081526020016000206000858152602001908152602001600020600301805461180b906144d4565b80601f0160208091040260200160405190810160405280929190818152602001828054611837906144d4565b80156118845780601f1061185957610100808354040283529160200191611884565b820191906000526020600020905b81548152906001019060200180831161186757829003601f168201915b505050505090506000600360003373ffffffffffffffffffffffffffffffffffffffff1673ffffffffffffffffffffffffffffffffffffffff1681526020019081526020016000206000868152602001908152602001600020600001549050600015156005856040516118f791906145ae565b90815260200160405180910390208460405161191391906145ae565b90815260200160405180910390208360405161192f91906145ae565b9081526020016040518091039020600083815260200190815260200160002060070160009054906101000a900460ff161515146119a1576040517f08c379a000000000000000000000000000000000000000000000000000000000815260040161199890614637565b60405180910390fd5b60016005856040516119b391906145ae565b9081526020016040518091039020846040516119cf91906145ae565b9081526020016040518091039020836040516119eb91906145ae565b9081526020016040518091039020600083815260200190815260200160002060070160006101000a81548160ff0219169083151502179055505050505050565b6000806000600660003373ffffffffffffffffffffffffffffffffffffffff1673ffffffffffffffffffffffffffffffffffffffff1681526020019081526020016000206006015490506000600660003373ffffffffffffffffffffffffffffffffffffffff1673ffffffffffffffffffffffffffffffffffffffff16815260200190815260200160002060070154905081819350935050509091565b6060806060600080600360003373ffffffffffffffffffffffffffffffffffffffff1673ffffffffffffffffffffffffffffffffffffffff16815260200190815260200160002060008781526020019081526020016000206000015490506000600360003373ffffffffffffffffffffffffffffffffffffffff1673ffffffffffffffffffffffffffffffffffffffff16815260200190815260200160002060008881526020019081526020016000206001018054611b86906144d4565b80601f0160208091040260200160405190810160405280929190818152602001828054611bb2906144d4565b8015611bff5780601f10611bd457610100808354040283529160200191611bff565b820191906000526020600020905b815481529060010190602001808311611be257829003601f168201915b505050505090506000600360003373ffffffffffffffffffffffffffffffffffffffff1673ffffffffffffffffffffffffffffffffffffffff16815260200190815260200160002060008981526020019081526020016000206002018054611c66906144d4565b80601f0160208091040260200160405190810160405280929190818152602001828054611c92906144d4565b8015611cdf5780601f10611cb457610100808354040283529160200191611cdf565b820191906000526020600020905b815481529060010190602001808311611cc257829003601f168201915b505050505090506000600360003373ffffffffffffffffffffffffffffffffffffffff1673ffffffffffffffffffffffffffffffffffffffff16815260200190815260200160002060008a81526020019081526020016000206003018054611d46906144d4565b80601f0160208091040260200160405190810160405280929190818152602001828054611d72906144d4565b8015611dbf5780601f10611d9457610100808354040283529160200191611dbf565b820191906000526020600020905b815481529060010190602001808311611da257829003601f168201915b50505050509050828282869750975097509750505050509193509193565b6060806060600060606000600660003373ffffffffffffffffffffffffffffffffffffffff1673ffffffffffffffffffffffffffffffffffffffff1681526020019081526020016000206001018054611e35906144d4565b80601f0160208091040260200160405190810160405280929190818152602001828054611e61906144d4565b8015611eae5780601f10611e8357610100808354040283529160200191611eae565b820191906000526020600020905b815481529060010190602001808311611e9157829003601f168201915b505050505090506000600660003373ffffffffffffffffffffffffffffffffffffffff1673ffffffffffffffffffffffffffffffffffffffff1681526020019081526020016000206002018054611f04906144d4565b80601f0160208091040260200160405190810160405280929190818152602001828054611f30906144d4565b8015611f7d5780601f10611f5257610100808354040283529160200191611f7d565b820191906000526020600020905b815481529060010190602001808311611f6057829003601f168201915b505050505090506000600660003373ffffffffffffffffffffffffffffffffffffffff1673ffffffffffffffffffffffffffffffffffffffff1681526020019081526020016000206003018054611fd3906144d4565b80601f0160208091040260200160405190810160405280929190818152602001828054611fff906144d4565b801561204c5780601f106120215761010080835404028352916020019161204c565b820191906000526020600020905b81548152906001019060200180831161202f57829003601f168201915b505050505090506000600660003373ffffffffffffffffffffffffffffffffffffffff1673ffffffffffffffffffffffffffffffffffffffff1681526020019081526020016000206004015490506000600660003373ffffffffffffffffffffffffffffffffffffffff1673ffffffffffffffffffffffffffffffffffffffff16815260200190815260200160002060050180546120e9906144d4565b80601f0160208091040260200160405190810160405280929190818152602001828054612115906144d4565b80156121625780601f1061213757610100808354040283529160200191612162565b820191906000526020600020905b81548152906001019060200180831161214557829003601f168201915b5050505050905084848484849950995099509950995050505050509091929394565b600060058560405161219691906145ae565b9081526020016040518091039020846040516121b291906145ae565b9081526020016040518091039020836040516121ce91906145ae565b908152602001604051809103902060008381526020019081526020016000209050600115158160070160009054906101000a900460ff16151514612247576040517f08c379a000000000000000000000000000000000000000000000000000000000815260040161223e906146c9565b60405180910390fd5b6000816009015490503382600801600083815260200190815260200160002060000160006101000a81548173ffffffffffffffffffffffffffffffffffffffff021916908373ffffffffffffffffffffffffffffffffffffffff160217905550600660003373ffffffffffffffffffffffffffffffffffffffff1673ffffffffffffffffffffffffffffffffffffffff168152602001908152602001600020600701548260080160008381526020019081526020016000206001018190555081600901600081548092919061231b9061445c565b91905055506000600460003373ffffffffffffffffffffffffffffffffffffffff1673ffffffffffffffffffffffffffffffffffffffff1681526020019081526020016000206000600660003373ffffffffffffffffffffffffffffffffffffffff1673ffffffffffffffffffffffffffffffffffffffff1681526020019081526020016000206007015481526020019081526020016000209050838160000181905550868160010190805190602001906123d7929190613807565b50858160020190805190602001906123f0929190613807565b5084816003019080519060200190612409929190613807565b50600660003373ffffffffffffffffffffffffffffffffffffffff1673ffffffffffffffffffffffffffffffffffffffff168152602001908152602001600020600701600081548092919061245d9061445c565b919050555050505050505050565b60008060058660405161247e91906145ae565b90815260200160405180910390208560405161249a91906145ae565b9081526020016040518091039020846040516124b691906145ae565b9081526020016040518091039020600084815260200190815260200160002060070160009054906101000a900460ff16905080915050949350505050565b60003373ffffffffffffffffffffffffffffffffffffffff16600260003373ffffffffffffffffffffffffffffffffffffffff1673ffffffffffffffffffffffffffffffffffffffff16815260200190815260200160002060000160009054906101000a900473ffffffffffffffffffffffffffffffffffffffff1673ffffffffffffffffffffffffffffffffffffffff161415612595576001905061259a565b600090505b90565b6000600660003373ffffffffffffffffffffffffffffffffffffffff1673ffffffffffffffffffffffffffffffffffffffff1681526020019081526020016000209050858160010190805190602001906125f8929190613807565b5084816002019080519060200190612611929190613807565b508381600301908051906020019061262a929190613807565b508281600401819055508181600501908051906020019061264c929190613807565b50505050505050565b600080600060058760405161266a91906145ae565b90815260200160405180910390208660405161268691906145ae565b9081526020016040518091039020856040516126a291906145ae565b9081526020016040518091039020600085815260200190815260200160002060090154905060006005886040516126d991906145ae565b9081526020016040518091039020876040516126f591906145ae565b90815260200160405180910390208660405161271191906145ae565b90815260200160405180910390206000868152602001908152602001600020600201549050818193509350505094509492505050565b60036020528160005260406000206020528060005260406000206000915091505080600001549080600101805461277d906144d4565b80601f01602080910402602001604051908101604052809291908181526020018280546127a9906144d4565b80156127f65780601f106127cb576101008083540402835291602001916127f6565b820191906000526020600020905b8154815290600101906020018083116127d957829003601f168201915b50505050509080600201805461280b906144d4565b80601f0160208091040260200160405190810160405280929190818152602001828054612837906144d4565b80156128845780601f1061285957610100808354040283529160200191612884565b820191906000526020600020905b81548152906001019060200180831161286757829003601f168201915b505050505090806003018054612899906144d4565b80601f01602080910402602001604051908101604052809291908181526020018280546128c5906144d4565b80156129125780601f106128e757610100808354040283529160200191612912565b820191906000526020600020905b8154815290600101906020018083116128f557829003601f168201915b5050505050905084565b6000600360003373ffffffffffffffffffffffffffffffffffffffff1673ffffffffffffffffffffffffffffffffffffffff16815260200190815260200160002060008481526020019081526020016000206000015490506000600360003373ffffffffffffffffffffffffffffffffffffffff1673ffffffffffffffffffffffffffffffffffffffff168152602001908152602001600020600085815260200190815260200160002060010180546129d4906144d4565b80601f0160208091040260200160405190810160405280929190818152602001828054612a00906144d4565b8015612a4d5780601f10612a2257610100808354040283529160200191612a4d565b820191906000526020600020905b815481529060010190602001808311612a3057829003601f168201915b505050505090506000600360003373ffffffffffffffffffffffffffffffffffffffff1673ffffffffffffffffffffffffffffffffffffffff16815260200190815260200160002060008681526020019081526020016000206002018054612ab4906144d4565b80601f0160208091040260200160405190810160405280929190818152602001828054612ae0906144d4565b8015612b2d5780601f10612b0257610100808354040283529160200191612b2d565b820191906000526020600020905b815481529060010190602001808311612b1057829003601f168201915b505050505090506000600360003373ffffffffffffffffffffffffffffffffffffffff1673ffffffffffffffffffffffffffffffffffffffff16815260200190815260200160002060008781526020019081526020016000206003018054612b94906144d4565b80601f0160208091040260200160405190810160405280929190818152602001828054612bc0906144d4565b8015612c0d5780601f10612be257610100808354040283529160200191612c0d565b820191906000526020600020905b815481529060010190602001808311612bf057829003601f168201915b505050505090506000600584604051612c2691906145ae565b908152602001604051809103902083604051612c4291906145ae565b908152602001604051809103902082604051612c5e91906145ae565b90815260200160405180910390206000868152602001908152602001600020600801600087815260200190815260200160002060000160009054906101000a900473ffffffffffffffffffffffffffffffffffffffff1690506000600585604051612cc991906145ae565b908152602001604051809103902084604051612ce591906145ae565b908152602001604051809103902083604051612d0191906145ae565b9081526020016040518091039020600087815260200190815260200160002060080160008881526020019081526020016000206001015490506000600586604051612d4c91906145ae565b908152602001604051809103902085604051612d6891906145ae565b908152602001604051809103902084604051612d8491906145ae565b9081526020016040518091039020600088815260200190815260200160002060090154905060005b81811015613027576000600588604051612dc691906145ae565b908152602001604051809103902087604051612de291906145ae565b908152602001604051809103902086604051612dfe91906145ae565b908152602001604051809103902060008a8152602001908152602001600020600801600083815260200190815260200160002060000160009054906101000a900473ffffffffffffffffffffffffffffffffffffffff1690506000600589604051612e6991906145ae565b908152602001604051809103902088604051612e8591906145ae565b908152602001604051809103902087604051612ea191906145ae565b908152602001604051809103902060008b81526020019081526020016000206008016000848152602001908152602001600020600101549050600460008373ffffffffffffffffffffffffffffffffffffffff1673ffffffffffffffffffffffffffffffffffffffff1681526020019081526020016000206000828152602001908152602001600020600080820160009055600182016000612f43919061388d565b600282016000612f53919061388d565b600382016000612f63919061388d565b5050600589604051612f7591906145ae565b908152602001604051809103902088604051612f9191906145ae565b908152602001604051809103902087604051612fad91906145ae565b908152602001604051809103902060008b81526020019081526020016000206008016000848152602001908152602001600020600080820160006101000a81549073ffffffffffffffffffffffffffffffffffffffff0219169055600182016000905550505050808061301f9061445c565b915050612dac565b508260058760405161303991906145ae565b90815260200160405180910390208660405161305591906145ae565b90815260200160405180910390208560405161307191906145ae565b9081526020016040518091039020600089815260200190815260200160002060000160006101000a81548173ffffffffffffffffffffffffffffffffffffffff021916908373ffffffffffffffffffffffffffffffffffffffff16021790555060006005876040516130e391906145ae565b9081526020016040518091039020866040516130ff91906145ae565b90815260200160405180910390208560405161311b91906145ae565b9081526020016040518091039020600089815260200190815260200160002060070160006101000a81548160ff021916908315150217905550600060058760405161316691906145ae565b90815260200160405180910390208660405161318291906145ae565b90815260200160405180910390208560405161319e91906145ae565b9081526020016040518091039020600089815260200190815260200160002060090181905550600360003373ffffffffffffffffffffffffffffffffffffffff1673ffffffffffffffffffffffffffffffffffffffff16815260200190815260200160002060008a815260200190815260200160002060008082016000905560018201600061322d919061388d565b60028201600061323d919061388d565b60038201600061324d919061388d565b50503373ffffffffffffffffffffffffffffffffffffffff166108fc671bc16d674ec800009081150290604051600060405180830381858888f1935050505015801561329d573d6000803e3d6000fd5b506000600660008573ffffffffffffffffffffffffffffffffffffffff1673ffffffffffffffffffffffffffffffffffffffff1681526020019081526020016000206006015490506000600360008673ffffffffffffffffffffffffffffffffffffffff1673ffffffffffffffffffffffffffffffffffffffff168152602001908152602001600020600083815260200190815260200160002090508881600001819055508781600101908051906020019061335a929190613807565b5086816002019080519060200190613373929190613807565b508581600301908051906020019061338c929190613807565b508160058960405161339e91906145ae565b9081526020016040518091039020886040516133ba91906145ae565b9081526020016040518091039020876040516133d691906145ae565b908152602001604051809103902060008b815260200190815260200160002060040181905550600660008673ffffffffffffffffffffffffffffffffffffffff1673ffffffffffffffffffffffffffffffffffffffff168152602001908152602001600020600601600081548092919061344f9061445c565b91905055505050505050505050505050565b60008060008060008060058a60405161347a91906145ae565b90815260200160405180910390208960405161349691906145ae565b9081526020016040518091039020886040516134b291906145ae565b9081526020016040518091039020600088815260200190815260200160002060000160009054906101000a900473ffffffffffffffffffffffffffffffffffffffff169050600060058b60405161350991906145ae565b90815260200160405180910390208a60405161352591906145ae565b90815260200160405180910390208960405161354191906145ae565b90815260200160405180910390206000898152602001908152602001600020600201549050600060058c60405161357891906145ae565b90815260200160405180910390208b60405161359491906145ae565b90815260200160405180910390208a6040516135b091906145ae565b908152602001604051809103902060008a8152602001908152602001600020600401549050600060058d6040516135e791906145ae565b90815260200160405180910390208c60405161360391906145ae565b90815260200160405180910390208b60405161361f91906145ae565b908152602001604051809103902060008b8152602001908152602001600020600601549050600060058e60405161365691906145ae565b90815260200160405180910390208d60405161367291906145ae565b90815260200160405180910390208c60405161368e91906145ae565b908152602001604051809103902060008c8152602001908152602001600020600a015490508484848484995099509950995099505050505050945094509450945094565b6000806005866040516136e591906145ae565b90815260200160405180910390208560405161370191906145ae565b90815260200160405180910390208460405161371d91906145ae565b908152602001604051809103902060008481526020019081526020016000209050600081600901549050600081141561375b576000925050506137f9565b60005b818110156137f1573373ffffffffffffffffffffffffffffffffffffffff1683600801600083815260200190815260200160002060000160009054906101000a900473ffffffffffffffffffffffffffffffffffffffff1673ffffffffffffffffffffffffffffffffffffffff1614156137de57600193505050506137f9565b80806137e99061445c565b91505061375e565b506000925050505b949350505050565b60015481565b828054613813906144d4565b90600052602060002090601f016020900481019282613835576000855561387c565b82601f1061384e57805160ff191683800117855561387c565b8280016001018555821561387c579182015b8281111561387b578251825591602001919060010190613860565b5b50905061388991906138cd565b5090565b508054613899906144d4565b6000825580601f106138ab57506138ca565b601f0160209004906000526020600020908101906138c991906138cd565b5b50565b5b808211156138e65760008160009055506001016138ce565b5090565b6000604051905090565b600080fd5b600080fd5b600073ffffffffffffffffffffffffffffffffffffffff82169050919050565b6000613929826138fe565b9050919050565b6139398161391e565b811461394457600080fd5b50565b60008135905061395681613930565b92915050565b600080fd5b600080fd5b6000601f19601f8301169050919050565b7f4e487b7100000000000000000000000000000000000000000000000000000000600052604160045260246000fd5b6139af82613966565b810181811067ffffffffffffffff821117156139ce576139cd613977565b5b80604052505050565b60006139e16138ea565b90506139ed82826139a6565b919050565b600067ffffffffffffffff821115613a0d57613a0c613977565b5b613a1682613966565b9050602081019050919050565b82818337600083830152505050565b6000613a45613a40846139f2565b6139d7565b905082815260208101848484011115613a6157613a60613961565b5b613a6c848285613a23565b509392505050565b600082601f830112613a8957613a8861395c565b5b8135613a99848260208601613a32565b91505092915050565b60008060008060808587031215613abc57613abb6138f4565b5b6000613aca87828801613947565b945050602085013567ffffffffffffffff811115613aeb57613aea6138f9565b5b613af787828801613a74565b935050604085013567ffffffffffffffff811115613b1857613b176138f9565b5b613b2487828801613a74565b925050606085013567ffffffffffffffff811115613b4557613b446138f9565b5b613b5187828801613a74565b91505092959194509250565b6000819050919050565b613b7081613b5d565b8114613b7b57600080fd5b50565b600081359050613b8d81613b67565b92915050565b60008060408385031215613baa57613ba96138f4565b5b6000613bb885828601613947565b9250506020613bc985828601613b7e565b9150509250929050565b613bdc81613b5d565b82525050565b600081519050919050565b600082825260208201905092915050565b60005b83811015613c1c578082015181840152602081019050613c01565b83811115613c2b576000848401525b50505050565b6000613c3c82613be2565b613c468185613bed565b9350613c56818560208601613bfe565b613c5f81613966565b840191505092915050565b6000608082019050613c7f6000830187613bd3565b8181036020830152613c918186613c31565b90508181036040830152613ca58185613c31565b90508181036060830152613cb98184613c31565b905095945050505050565b60008060008060808587031215613cde57613cdd6138f4565b5b600085013567ffffffffffffffff811115613cfc57613cfb6138f9565b5b613d0887828801613a74565b945050602085013567ffffffffffffffff811115613d2957613d286138f9565b5b613d3587828801613a74565b935050604085013567ffffffffffffffff811115613d5657613d556138f9565b5b613d6287828801613a74565b9250506060613d7387828801613b7e565b91505092959194509250565b613d888161391e565b82525050565b60008115159050919050565b613da381613d8e565b82525050565b600061014082019050613dbf600083018d613d7f565b613dcc602083018c613d7f565b613dd9604083018b613bd3565b613de6606083018a613bd3565b613df36080830189613bd3565b613e0060a0830188613d9a565b613e0d60c0830187613bd3565b613e1a60e0830186613d9a565b613e28610100830185613bd3565b613e36610120830184613bd3565b9b9a5050505050505050505050565b600060208284031215613e5b57613e5a6138f4565b5b6000613e6984828501613947565b91505092915050565b600061010082019050613e88600083018b613d7f565b8181036020830152613e9a818a613c31565b90508181036040830152613eae8189613c31565b90508181036060830152613ec28188613c31565b9050613ed16080830187613bd3565b81810360a0830152613ee38186613c31565b9050613ef260c0830185613bd3565b613eff60e0830184613bd3565b9998505050505050505050565b6000602082019050613f216000830184613d7f565b92915050565b600080600080600080600080610100898b031215613f4857613f476138f4565b5b600089013567ffffffffffffffff811115613f6657613f656138f9565b5b613f728b828c01613a74565b985050602089013567ffffffffffffffff811115613f9357613f926138f9565b5b613f9f8b828c01613a74565b975050604089013567ffffffffffffffff811115613fc057613fbf6138f9565b5b613fcc8b828c01613a74565b9650506060613fdd8b828c01613b7e565b9550506080613fee8b828c01613b7e565b94505060a0613fff8b828c01613947565b93505060c06140108b828c01613b7e565b92505060e06140218b828c01613b7e565b9150509295985092959890939650565b600060208284031215614047576140466138f4565b5b600061405584828501613b7e565b91505092915050565b600060808201905081810360008301526140788187613c31565b9050818103602083015261408c8186613c31565b905081810360408301526140a08185613c31565b90506140af6060830184613bd3565b95945050505050565b600080600080600060a086880312156140d4576140d36138f4565b5b600086013567ffffffffffffffff8111156140f2576140f16138f9565b5b6140fe88828901613a74565b955050602086013567ffffffffffffffff81111561411f5761411e6138f9565b5b61412b88828901613a74565b945050604086013567ffffffffffffffff81111561414c5761414b6138f9565b5b61415888828901613a74565b935050606061416988828901613b7e565b925050608061417a88828901613b7e565b9150509295509295909350565b600060808201905061419c6000830187613d7f565b81810360208301526141ae8186613c31565b905081810360408301526141c28185613c31565b905081810360608301526141d68184613c31565b905095945050505050565b60006040820190506141f66000830185613bd3565b6142036020830184613bd3565b9392505050565b600060a08201905081810360008301526142248188613c31565b905081810360208301526142388187613c31565b9050818103604083015261424c8186613c31565b905061425b6060830185613bd3565b818103608083015261426d8184613c31565b90509695505050505050565b600060208201905061428e6000830184613d9a565b92915050565b600080600080600060a086880312156142b0576142af6138f4565b5b600086013567ffffffffffffffff8111156142ce576142cd6138f9565b5b6142da88828901613a74565b955050602086013567ffffffffffffffff8111156142fb576142fa6138f9565b5b61430788828901613a74565b945050604086013567ffffffffffffffff811115614328576143276138f9565b5b61433488828901613a74565b935050606061434588828901613b7e565b925050608086013567ffffffffffffffff811115614366576143656138f9565b5b61437288828901613a74565b9150509295509295909350565b60008060408385031215614396576143956138f4565b5b60006143a485828601613b7e565b92505060206143b585828601613b7e565b9150509250929050565b600060a0820190506143d46000830188613d7f565b6143e16020830187613bd3565b6143ee6040830186613bd3565b6143fb6060830185613bd3565b6144086080830184613bd3565b9695505050505050565b60006020820190506144276000830184613bd3565b92915050565b7f4e487b7100000000000000000000000000000000000000000000000000000000600052601160045260246000fd5b600061446782613b5d565b91507fffffffffffffffffffffffffffffffffffffffffffffffffffffffffffffffff82141561449a5761449961442d565b5b600182019050919050565b7f4e487b7100000000000000000000000000000000000000000000000000000000600052602260045260246000fd5b600060028204905060018216806144ec57607f821691505b60208210811415614500576144ff6144a5565b5b50919050565b7f4f6e6c792061646d696e2063616e205265676973746572206c616e6400000000600082015250565b600061453c601c83613bed565b915061454782614506565b602082019050919050565b6000602082019050818103600083015261456b8161452f565b9050919050565b600081905092915050565b600061458882613be2565b6145928185614572565b93506145a2818560208601613bfe565b80840191505092915050565b60006145ba828461457d565b915081905092915050565b7f50726f706572747920616c7265616479206d61726b656420617661696c61626c60008201527f6500000000000000000000000000000000000000000000000000000000000000602082015250565b6000614621602183613bed565b915061462c826145c5565b604082019050919050565b6000602082019050818103600083015261465081614614565b9050919050565b7f546869732070726f7065727479206973204e4f54206d61726b656420666f722060008201527f73616c6521000000000000000000000000000000000000000000000000000000602082015250565b60006146b3602583613bed565b91506146be82614657565b604082019050919050565b600060208201905081810360008301526146e2816146a6565b905091905056fea26469706673582212201b9d9ab3fa5687e7cd3d54eb21a150d90ae00798edd5605e4d729f7e6735b46564736f6c63430008090033",
  "immutableReferences": {},
  "source": "// SPDX-License-Identifier: MIT\r\npragma solidity >= 0.5.0 < 0.9.0;\r\n\r\ncontract Registry{\r\n\r\n    address public superAdmin;\r\n    uint public totalAdmins;\r\n\r\n    struct Admin{\r\n        address adminAddress;\r\n        string city;\r\n        string district;\r\n        string state;\r\n    }\r\n\r\n    struct LandDetails{\r\n        address owner;\r\n        address admin;\r\n        uint256 propertyId;\r\n        uint surveyNumber;\r\n        uint index;\r\n        bool registered;\r\n        uint marketValue;\r\n        bool markAvailable;\r\n        mapping(uint => RequestDetails) requests; // reqNo => RequestDetails\r\n        uint noOfRequests;  // other users requested to this land\r\n        uint sqft;\r\n    }\r\n\r\n    struct UserProfile{\r\n        address userAddr;\r\n        string fullName;\r\n        string gender;\r\n        string email;\r\n        uint256 contact;\r\n        string residentialAddr;\r\n        uint totalIndices;\r\n        uint requestIndices;  // this user requested to other lands\r\n    }\r\n\r\n    struct OwnerOwns{\r\n        uint surveyNumber;\r\n        string state;\r\n        string district;\r\n        string city;\r\n    }\r\n\r\n    struct RequestedLands{\r\n        uint surveyNumber;\r\n        string state;\r\n        string district;\r\n        string city;\r\n    }\r\n\r\n    struct RequestDetails{\r\n        address whoRequested;\r\n        uint reqIndex;\r\n    }\r\n\r\n    mapping(address => Admin) public admins;\r\n    mapping(address => mapping(uint => OwnerOwns)) public ownerMapsProperty;  // ownerAddr => index no. => OwnerOwns\r\n    mapping(address => mapping(uint => RequestedLands)) public requestedLands;  // ownerAddr => reqIndex => RequestedLands\r\n    mapping(string => mapping(string => mapping(string => mapping(uint => LandDetails)))) public landDetalsMap; // state => district => city => surveyNo => LandDetails\r\n    mapping(address => UserProfile) public userProfile;\r\n\r\n\r\n    constructor(){\r\n        superAdmin = msg.sender;\r\n    }\r\n\r\n    modifier onlyAdmin(){\r\n        require(admins[msg.sender].adminAddress == msg.sender, \"Only admin can Register land\");\r\n        _;\r\n    }\r\n\r\n\r\n    // SuperAdmin: Registers new admin\r\n    function addAdmin(address _adminAddr, string memory _state, string memory _district, string memory _city) external{\r\n        Admin storage newAdmin = admins[_adminAddr];\r\n        totalAdmins++;\r\n\r\n        newAdmin.adminAddress = _adminAddr;\r\n        newAdmin.city = _city;\r\n        newAdmin.district = _district;\r\n        newAdmin.state = _state;\r\n    }\r\n\r\n\r\n    // check if it is admin\r\n    function isAdmin() external view returns(bool){\r\n        if(admins[msg.sender].adminAddress == msg.sender){\r\n            return true;\r\n        }\r\n        else return false;\r\n    }\r\n\r\n\r\n    // Admin: registers land\r\n    function registerLand(string memory _state, string memory _district, string memory _city, uint256 _propertyId, uint _surveyNo, address _owner, uint _marketValue, uint _sqft) external onlyAdmin{\r\n\r\n\r\n        LandDetails storage newLandRegistry = landDetalsMap[_state][_district][_city][_surveyNo];\r\n        OwnerOwns storage newOwnerOwns = ownerMapsProperty[_owner][userProfile[_owner].totalIndices];\r\n\r\n\r\n        newLandRegistry.owner = _owner;\r\n        newLandRegistry.admin = msg.sender;\r\n        newLandRegistry.propertyId = _propertyId;\r\n        newLandRegistry.surveyNumber = _surveyNo;\r\n        newLandRegistry.index = userProfile[_owner].totalIndices;\r\n        newLandRegistry.registered = true;\r\n        newLandRegistry.marketValue = _marketValue;\r\n        newLandRegistry.markAvailable = false;\r\n        newLandRegistry.sqft = _sqft;\r\n\r\n        newOwnerOwns.surveyNumber = _surveyNo;\r\n        newOwnerOwns.state = _state;\r\n        newOwnerOwns.district = _district;\r\n        newOwnerOwns.city = _city;\r\n\r\n        userProfile[_owner].totalIndices++;\r\n    }\r\n\r\n\r\n    // User_1: set user profile\r\n    function setUserProfile(string memory _fullName, string memory _gender, string memory _email, uint256 _contact, string memory _residentialAddr) external{\r\n\r\n        UserProfile storage newUserProfile = userProfile[msg.sender];\r\n\r\n        newUserProfile.fullName = _fullName;\r\n        newUserProfile.gender = _gender;\r\n        newUserProfile.email = _email;\r\n        newUserProfile.contact = _contact;\r\n        newUserProfile.residentialAddr = _residentialAddr;\r\n    }\r\n\r\n\r\n    // User_1: mark property available\r\n    function markMyPropertyAvailable(uint indexNo) external {\r\n\r\n        string memory state = ownerMapsProperty[msg.sender][indexNo].state;\r\n        string memory district = ownerMapsProperty[msg.sender][indexNo].district;\r\n        string memory city = ownerMapsProperty[msg.sender][indexNo].city;\r\n        uint surveyNumber = ownerMapsProperty[msg.sender][indexNo].surveyNumber;\r\n\r\n        require(landDetalsMap[state][district][city][surveyNumber].markAvailable == false, \"Property already marked available\");\r\n\r\n        landDetalsMap[state][district][city][surveyNumber].markAvailable = true;\r\n\r\n    }\r\n\r\n\r\n    // User_2: Request for buy  **ownerAddress & index = arguements**\r\n    function RequestForBuy(string memory _state, string memory _district, string memory _city, uint _surveyNo) external payable{\r\n\r\n        LandDetails storage thisLandDetail = landDetalsMap[_state][_district][_city][_surveyNo];\r\n        require(thisLandDetail.markAvailable == true, \"This property is NOT marked for sale!\");\r\n\r\n        uint req_serialNum = thisLandDetail.noOfRequests;\r\n        thisLandDetail.requests[req_serialNum].whoRequested = msg.sender;\r\n        thisLandDetail.requests[req_serialNum].reqIndex = userProfile[msg.sender].requestIndices;\r\n        thisLandDetail.noOfRequests++;\r\n\r\n        // adding requested land to user_2 profile\r\n        RequestedLands storage newReqestedLands = requestedLands[msg.sender][userProfile[msg.sender].requestIndices];\r\n        newReqestedLands.surveyNumber = _surveyNo;\r\n        newReqestedLands.state = _state;\r\n        newReqestedLands.district = _district;\r\n        newReqestedLands.city = _city;\r\n\r\n        userProfile[msg.sender].requestIndices++;\r\n\r\n    }\r\n\r\n\r\n    // User_1: Accept the buy request; sell.\r\n    function AcceptRequest(uint _index, uint _reqNo) external payable{\r\n\r\n        uint _surveyNo = ownerMapsProperty[msg.sender][_index].surveyNumber;\r\n        string memory _state = ownerMapsProperty[msg.sender][_index].state;\r\n        string memory _district = ownerMapsProperty[msg.sender][_index].district;\r\n        string memory _city = ownerMapsProperty[msg.sender][_index].city;\r\n\r\n        // updating LandDetails\r\n        address newOwner = landDetalsMap[_state][_district][_city][_surveyNo].requests[_reqNo].whoRequested;\r\n        uint newOwner_reqIndex = landDetalsMap[_state][_district][_city][_surveyNo].requests[_reqNo].reqIndex;\r\n        uint noOfReq = landDetalsMap[_state][_district][_city][_surveyNo].noOfRequests;\r\n\r\n        // deleting requested land from all requesters AND removing all incoming requests\r\n        for(uint i=0; i<noOfReq; i++){\r\n            address requesterAddr = landDetalsMap[_state][_district][_city][_surveyNo].requests[i].whoRequested;\r\n            uint requester_reqIndx = landDetalsMap[_state][_district][_city][_surveyNo].requests[i].reqIndex;\r\n\r\n            delete requestedLands[requesterAddr][requester_reqIndx];\r\n            delete landDetalsMap[_state][_district][_city][_surveyNo].requests[i];\r\n        }\r\n\r\n        landDetalsMap[_state][_district][_city][_surveyNo].owner = newOwner;\r\n        landDetalsMap[_state][_district][_city][_surveyNo].markAvailable = false;\r\n        landDetalsMap[_state][_district][_city][_surveyNo].noOfRequests = 0;\r\n\r\n        // deleting property from user_1's ownerMapsProperty\r\n        delete ownerMapsProperty[msg.sender][_index];\r\n\tpayable(msg.sender).transfer(2 ether) ;\r\n        // adding ownerMapsProperty for newOwner\r\n        uint newOwnerTotProp = userProfile[newOwner].totalIndices;\r\n        OwnerOwns storage newOwnerOwns = ownerMapsProperty[newOwner][newOwnerTotProp];\r\n\r\n        newOwnerOwns.surveyNumber = _surveyNo;\r\n        newOwnerOwns.state = _state;\r\n        newOwnerOwns.district = _district;\r\n        newOwnerOwns.city = _city;\r\n\r\n\r\n        landDetalsMap[_state][_district][_city][_surveyNo].index = newOwnerTotProp;\r\n\r\n        userProfile[newOwner].totalIndices++;\r\n\r\n    }\r\n\r\n\r\n\r\n    //******* GETTERS **********\r\n\r\n    // return land details\r\n    function getLandDetails(string memory _state, string memory _district, string memory _city, uint _surveyNo) external view returns(address, uint256, uint, uint, uint){\r\n\r\n        address owner = landDetalsMap[_state][_district][_city][_surveyNo].owner;\r\n        uint256 propertyid = landDetalsMap[_state][_district][_city][_surveyNo].propertyId;\r\n        uint indx = landDetalsMap[_state][_district][_city][_surveyNo].index;\r\n        uint mv = landDetalsMap[_state][_district][_city][_surveyNo].marketValue;\r\n        uint sqft = landDetalsMap[_state][_district][_city][_surveyNo].sqft;\r\n\r\n        return(owner, propertyid, indx, mv, sqft);\r\n    }\r\n\r\n    function getRequestCnt_propId(string memory _state, string memory _district, string memory _city, uint _surveyNo) external view returns(uint, uint256){\r\n        uint _noOfRequests = landDetalsMap[_state][_district][_city][_surveyNo].noOfRequests;\r\n        uint256 _propertyId = landDetalsMap[_state][_district][_city][_surveyNo].propertyId;\r\n        return(_noOfRequests, _propertyId);\r\n    }\r\n\r\n    function getRequesterDetail(string memory _state, string memory _district, string memory _city, uint _surveyNo, uint _reqIndex) external view returns(address){\r\n        address requester = landDetalsMap[_state][_district][_city][_surveyNo].requests[_reqIndex].whoRequested;\r\n        return(requester);\r\n    }\r\n\r\n    function isAvailable(string memory _state, string memory _district, string memory _city, uint _surveyNo) external view returns(bool){\r\n        bool available = landDetalsMap[_state][_district][_city][_surveyNo].markAvailable;\r\n        return(available);\r\n    }\r\n\r\n    function getOwnerOwns(uint indx) external view returns(string memory, string memory, string memory, uint){\r\n\r\n        uint surveyNo = ownerMapsProperty[msg.sender][indx].surveyNumber;\r\n        string memory state = ownerMapsProperty[msg.sender][indx].state;\r\n        string memory district = ownerMapsProperty[msg.sender][indx].district;\r\n        string memory city = ownerMapsProperty[msg.sender][indx].city;\r\n\r\n        return(state, district, city, surveyNo);\r\n    }\r\n\r\n    function getRequestedLands(uint indx) external view returns(string memory, string memory, string memory, uint){\r\n\r\n        uint surveyNo = requestedLands[msg.sender][indx].surveyNumber;\r\n        string memory state = requestedLands[msg.sender][indx].state;\r\n        string memory district = requestedLands[msg.sender][indx].district;\r\n        string memory city = requestedLands[msg.sender][indx].city;\r\n\r\n        return(state, district, city, surveyNo);\r\n    }\r\n\r\n    function getUserProfile() external view returns(string memory, string memory, string memory, uint256, string memory){\r\n\r\n        string memory fullName = userProfile[msg.sender].fullName;\r\n        string memory gender = userProfile[msg.sender].gender;\r\n        string memory email = userProfile[msg.sender].email;\r\n        uint256 contact = userProfile[msg.sender].contact;\r\n        string memory residentialAddr = userProfile[msg.sender].residentialAddr;\r\n\r\n        return(fullName, gender, email, contact, residentialAddr);\r\n    }\r\n\r\n    function getIndices() external view returns(uint, uint){\r\n\r\n        uint _totalIndices = userProfile[msg.sender].totalIndices;\r\n        uint _reqIndices = userProfile[msg.sender].requestIndices;\r\n\r\n        return(_totalIndices, _reqIndices);\r\n    }\r\n\r\n\r\n    function didIRequested(string memory _state, string memory _district, string memory _city, uint _surveyNo) external view returns(bool){\r\n\r\n        LandDetails storage thisLandDetail = landDetalsMap[_state][_district][_city][_surveyNo];\r\n        uint _noOfRequests = thisLandDetail.noOfRequests;\r\n\r\n        if(_noOfRequests == 0)\r\n            return (false);\r\n\r\n        for(uint i=0; i<_noOfRequests; i++){\r\n            if(thisLandDetail.requests[i].whoRequested == msg.sender){\r\n                return (true);\r\n            }\r\n        }\r\n\r\n        return(false);\r\n    }\r\n\r\n}\r\n",
  "sourcePath": "D:\\LandLedger\\contracts\\Registry.sol",
  "compiler": {
    "name": "solc",
    "version": "0.8.9+commit.e5eed63a.Emscripten.clang"
  },
  "schemaVersion": "3.4.12",
  "updatedAt": "2023-11-13T06:11:43.852Z",
  "devdoc": {
    "kind": "dev",
    "methods": {},
    "version": 1
  },
  "userdoc": {
    "kind": "user",
    "methods": {},
    "version": 1
  }
}